:100000000C9446000C9465000C9465000C946500FB
:100010000C9465000C9465000C9465000C946500CC
:100020000C9465000C9465000C9465000C946500BC
:100030000C9465000C94F5000C9465000C9465001C
:100040000C9465000C9465000C9465000C9465009C
:100050000C9465000C9465000C9465000C9465008C
:100060000C9465000C9465000C9465000C9465007C
:100070000C9465000C9465000C9465000C9465006C
:100080000C9465000C9465000C94650011241FBE4F
:10009000CFEFD0E4DEBFCDBF11E0A0E0B1E0E4E1FE
:1000A000F4E000E00BBF02C007900D92A231B1074F
:1000B000D9F711E0A2E1B1E001C01D92A133B1076F
:1000C000E1F70E9461010C9408020C940000CF93A8
:1000D000C82F8A3019F48DE00E9467009091C0000B
:1000E00095FFFCCFC093C60080E090E0CF910895CB
:1000F0009C01009749F410922E0190B190959F7742
:1001000090932F0190932E01C9010895009719F43F
:1001100020912E0125B908950F931F93CF93DF935C
:10012000B62FA72FF82FE92F022F132FD42FC52F6B
:1001300004C0062F172FD82FC92F6B2F7A2F8F2F80
:100140009E2F202F312F4D2F5C2F0E94E601B02FC4
:10015000A12FFD2FEC2F611571058105910549F740
:10016000602F712F8D2F9C2FDF91CF911F910F91B9
:1001700008956093000170930101809302019093B0
:100180000301609312017093130180931401909303
:10019000150108958BE0809381008DE790E09093A6
:1001A00089008093880082E080936F001092850020
:1001B000109284008091000190910101A0910201B0
:1001C000B09103018093120190931301A093140145
:1001D000B09315018FB780688FBF0895109281008A
:1001E000089581E08093160108951F920F920FB633
:1001F0000F9211240BB60F922F933F934F935F935F
:100200006F937F938F939F93AF93BF93EF93FF93DE
:100210008091120190911301A0911401B0911501E8
:100220000197A109B1098093120190931301A09342
:100230001401B0931501892B8A2B8B2B91F40E940A
:10024000F1008091000190910101A0910201B09113
:1002500003018093120190931301A0931401B093B2
:100260001501FF91EF91BF91AF919F918F917F9178
:100270006F915F914F913F912F910F900BBE0F9017
:100280000FBE0F901F901895873069F0863069F087
:10029000853069F0843069F0833069F0823069F02C
:1002A000813069F4089580E4089580E2089580E142
:1002B000089588E0089584E0089582E0089580E03C
:1002C0000895CF93DF9300D000D0CDB7DEB711B83B
:1002D0008FEF82B984B915B8A2E2B1E0BA83A983DD
:1002E000E7E1F1E0FC83EB831C924AE050E060E040
:1002F00070E011964D935D936D937C9314971596D2
:100300004D935D936D937C93189788E790E01A96D0
:100310009C938E93199710824183528363837483D5
:10032000458356836783708786E890E0928781874C
:100330006AE070E080E090E00E94B9000E94CA008C
:10034000E12CF12C38C0F701EE0FFF1FEC0FFD1F61
:1003500001811281D80115964D915D916D917C912D
:10036000189711968D919D910D90BC91A02D4817D5
:1003700059076A077B0781F4D8011996ED91FC9122
:100380001A978C91992787FD90950995F80180839C
:100390001582168217821086F80185819681A781C1
:1003A000B0850A96A11DB11D85839683A783B0876A
:1003B000FFEFEF1AFF0A82E0E816F10420F28091C5
:1003C00016018823E1F310921601BACFA1E21A2E8A
:1003D000AA1BBB1BFD010DC0AA1FBB1FEE1FFF1FE9
:1003E000A217B307E407F50720F0A21BB30BE40B39
:1003F000F50B661F771F881F991F1A9469F7609580
:100400007095809590959B01AC01BD01CF01089539
:04041000F894FFCF8E
:10041400010000000000000200000000670000006E
:020424000000D6
:00000001FF
